:020000040000FA
:06000000AFEF27F0120033
:10080000AFEF27F012000F0EC16E070EB46E300E60
:10081000926E0F0E946E80B802D02EEC17F080BA54
:1008200002D024EC0AF082B002D0BBEC0FF0F3D778
:020830001200B4
:02084A000000AC
:04084C00D9CFE6FF1B
:10085000E1CFD9FF4C0EE126050EDB68060EDB6802
:10086000070EDB68080EDB68090EDB680A0EDB6822
:10087000D9501E0FE96EDACFEAFF540EEE6E410E2C
:10088000EE6E470EEE6E270EEE6E730EEE6E200EBF
:10089000EE6E6D0EEE6E650EEE6E6D0EEE6E6F0E02
:1008A000EE6E720EEE6E790EEE6E200EEE6E630E32
:1008B000EE6E6C0EEE6E650EEE6E610EEE6E6E0EF0
:1008C000EE6E690EEE6E6E0EEE6E670EEE6E200E22
:1008D000EE6E730EEE6E740EEE6E610EEE6E720EB6
:1008E000EE6E740EEE6E650EEE6E640EEE6EEE6AD9
:1008F0003C0EDB6A3D0EDB6A3E0EDB6A3F0EDB6AB6
:10090000400EDB6A410EDB6A420EDB6A430EDB6A95
:10091000440EDB6A450EDB6A460EDB6A470EDB6A75
:10092000480EDB6A490EDB6A4A0EDB6A4B0EDB6A55
:1009300094EC18F0D9500E0FE66E000EDA20E66E39
:10094000260EE66E68EC19F0E552E552E552E76EC8
:100950000D0EE7CFDBFFDB5000E1D9500E0FE66E46
:10096000000EDA20E66E14EC1BF0E552E552E76E5D
:100970000D0EE7CFDBFF0B0EDB6A050EF36E0B0EE1
:10098000DBCFF4FFF350F45C20E2D9500E0F166E6B
:10099000DACF17F00B0EDB500F011624E96E000EB4
:1009A0001720EA6EEF50E66ED9CF14F0DACF15F0CB
:1009B0000B0EDB501424E96E000E1520EA6EE55292
:1009C000E750EF6E0B0EDB2AD8D70D0EDB5014E18B
:1009D000D9501E0FE66E000EDA20E66E15EC27F0F9
:1009E000E552E5520D0EE66E76EC27F0E5520A0E62
:1009F000E66E5FEC27F0E552D9CFE6FFDACFE6FFEF
:100A00000CEC1CF0E552E552E76E0D0EE7CFDBFF74
:100A1000D9CFE6FFDACFE6FFD950050FE66E000E1C
:100A2000DA20E66EE66A600EE66E95EC1CF0146E57
:100A3000060EE15E1450E76E0D0EE7CFDBFFDB50D4
:100A400020E1010EF36E0B0EF3CFDBFF030EF36E0E
:100A50000B0EDBCFF4FFF350F45C13E2D9503C0FE4
:100A6000E66E000EDA20E66E0B0EDBCFE6FFE66ADE
:100A7000D7EC09F0E552E552E552E5520B0EDB2AC0
:100A8000E5D7D9CFE6FFDACFE6FFD950050FE66EFE
:100A9000000EDA20E66E040EE66E600EE66E95EC51
:100AA0001CF0146E060EE15E1450E76E0D0EE7CFDB
:100AB000DBFFDB5020E1040EF36E0B0EF3CFDBFF08
:100AC000070EF36E0B0EDBCFF4FFF350F45C13E272
:100AD000D9503C0FE66E000EDA20E66E0B0EDBCF2F
:100AE000E6FFE66AD7EC09F0E552E552E552E55239
:100AF0000B0EDB2AE5D7D9CFE6FFDACFE6FFD950D8
:100B0000050FE66E000EDA20E66E080EE66E600E49
:100B1000E66E95EC1CF0146E060EE15E1450E76E66
:100B20000D0EE7CFDBFFDB501EE1080EF36E0B0E60
:100B3000F3CFDBFFF36EDBCFF4FFF350F45C13E293
:100B4000D9503C0FE66E000EDA20E66E0B0EDBCFBE
:100B5000E6FFE66AD7EC09F0E552E552E552E552C8
:100B60000B0EDB2AE7D7D9CFE6FFDACFE6FFD95065
:100B7000050FE66E000EDA20E66E0C0EE66E600ED5
:100B8000E66E95EC1CF0146E060EE15E1450E76EF6
:100B90000D0EE7CFDBFFDB501FE10C0EF36E0B0EEB
:100BA000F3CFDBFF0F0EF36E0B0EDBCFF4FFF35032
:100BB000F45C12E2D9503C0FE66E000EDA20E66ECD
:100BC0000B0EDBCFE6FFE66AF2DBE552E552E552BB
:100BD000E5520B0EDB2AE6D7D9CFE6FFDACFE6FFE8
:100BE000D950050FE66E000EDA20E66E100EE66EA6
:100BF000600EE66E95EC1CF0146E060EE15E14506D
:100C0000E76E0D0EE7CFDBFFDB501FE1100EF36E3A
:100C10000B0EF3CFDBFF130EF36E0B0EDBCFF4FFE7
:100C2000F350F45C12E2D9503C0FE66E000EDA206D
:100C3000E66E0B0EDBCFE6FFE66AB9DBE552E55266
:100C4000E552E5520B0EDB2AE6D7D9CFE6FFDACF25
:100C5000E6FFD950050FE66E000EDA20E66E140EA0
:100C6000E66E600EE66E95EC1CF0146E060EE15E0C
:100C70001450E76E0D0EE7CFDBFFDB501FE1140EC3
:100C8000F36E0B0EF3CFDBFF170EF36E0B0EDBCF05
:100C9000F4FFF350F45C12E2D9503C0FE66E000E04
:100CA000DA20E66E0B0EDBCFE6FFE66A80DBE5526C
:100CB000E552E552E5520B0EDB2AE6D7D9CFE6FF27
:100CC000DACFE6FFD950050FE66E000EDA20E66EA9
:100CD000180EE66E600EE66E95EC1CF0146E060EB5
:100CE000E15E1450E76E0D0EE7CFDBFFDB501FE136
:100CF000180EF36E0B0EF3CFDBFF1B0EF36E0B0E15
:100D0000DBCFF4FFF350F45C12E2D9503C0FE66EF7
:100D1000000EDA20E66E0B0EDBCFE6FFE66A47DB5D
:100D2000E552E552E552E5520B0EDB2AE6D7D9CF64
:100D3000E6FFDACFE6FFD950050FE66E000EDA20A7
:100D4000E66E1C0EE66E600EE66E95EC1CF0146E00
:100D5000060EE15E1450E76E0D0EE7CFDBFFDB50B1
:100D60001FE11C0EF36E0B0EF3CFDBFF1F0EF36EB5
:100D70000B0EDBCFF4FFF350F45C12E2D9503C0FC2
:100D8000E66E000EDA20E66E0B0EDBCFE6FFE66ABB
:100D90000EDBE552E552E552E5520B0EDB2AE6D7B3
:100DA000D9CFE6FFDACFE6FFD950050FE66E000E89
:100DB000DA20E66E200EE66E600EE66E95EC1CF014
:100DC000146E060EE15E1450E76E0D0EE7CFDBFFEA
:100DD000DB501FE1200EF36E0B0EF3CFDBFF230E73
:100DE000F36E0B0EDBCFF4FFF350F45C12E2D9503C
:100DF0003C0FE66E000EDA20E66E0B0EDBCFE6FF50
:100E0000E66AD5DAE552E552E552E5520B0EDB2AE9
:100E1000E6D7D9CFE6FFDACFE6FFD950050FE66E69
:100E2000000EDA20E66E240EE66E600EE66E95EC9D
:100E30001CF0146E060EE15E1450E76E0D0EE7CF47
:100E4000DBFFDB501FE1240EF36E0B0EF3CFDBFF55
:100E5000270EF36E0B0EDBCFF4FFF350F45C12E2BF
:100E6000D9503C0FE66E000EDA20E66E0B0EDBCF9B
:100E7000E6FFE66A9CDAE552E552E552E5520B0ED2
:100E8000DB2AE6D7D9CFE6FFDACFE6FFD950050F48
:100E9000E66E000EDA20E66E280EE66E600EE66E56
:100EA00095EC1CF0146E060EE15E1450E76E0D0E0C
:100EB000E7CFDBFFDB501FE1280EF36E0B0EF3CF05
:100EC000DBFF2B0EF36E0B0EDBCFF4FFF350F45C65
:100ED00012E2D9503C0FE66E000EDA20E66E0B0EE1
:100EE000DBCFE6FFE66A63DAE552E552E552E5520A
:100EF0000B0EDB2AE6D7D9CFE6FFDACFE6FFD950D3
:100F0000050FE66E000EDA20E66E2C0EE66E600E21
:100F1000E66E95EC1CF0146E060EE15E1450E76E62
:100F20000D0EE7CFDBFFDB501FE12C0EF36E0B0E37
:100F3000F3CFDBFF2F0EF36E0B0EDBCFF4FFF3507E
:100F4000F45C12E2D9503C0FE66E000EDA20E66E39
:100F50000B0EDBCFE6FFE66A2ADAE552E552E552F0
:100F6000E5520B0EDB2AE6D7D9CFE6FFDACFE6FF54
:100F7000D950050FE66E000EDA20E66E300EE66EF2
:100F8000600EE66E95EC1CF0146E060EE15E1450D9
:100F9000E76E0D0EE7CFDBFFDB501FE1300EF36E87
:100FA0000B0EF3CFDBFF330EF36E0B0EDBCFF4FF34
:100FB000F350F45C12E2D9503C0FE66E000EDA20DA
:100FC000E66E0B0EDBCFE6FFE66AF1D9E552E5529D
:100FD000E552E5520B0EDB2AE6D7D9CFE6FFDACF92
:100FE000E6FFD950050FE66E000EDA20E66E340EED
:100FF000E66E600EE66E95EC1CF0146E060EE15E79
:101000001450E76E0D0EE7CFDBFFDB501FE1340E0F
:10101000F36E0B0EF3CFDBFF370EF36E0B0EDBCF51
:10102000F4FFF350F45C12E2D9503C0FE66E000E70
:10103000DA20E66E0B0EDBCFE6FFE66AB8D9E552A2
:10104000E552E552E5520B0EDB2AE6D7D9CFE6FF93
:10105000DACFE6FFD950050FE66E000EDA20E66E15
:10106000380EE66E600EE66E95EC1CF0146E060E01
:10107000E15E1450E76E0D0EE7CFDBFFDB501FE1A2
:10108000380EF36E0B0EF3CFDBFF3B0EF36E0B0E41
:10109000DBCFF4FFF350F45C12E2D9503C0FE66E64
:1010A000000EDA20E66E0B0EDBCFE6FFE66A7FD994
:1010B000E552E552E552E5520B0EDB2AE6D7D9CFD1
:1010C000E6FFDACFE6FFD950050FE66E000EDA2014
:1010D000E66E3C0EE66E600EE66E95EC1CF0146E4D
:1010E000060EE15E1450E76E0D0EE7CFDBFFDB501E
:1010F0001FE13C0EF36E0B0EF3CFDBFF3F0EF36EE2
:101100000B0EDBCFF4FFF350F45C12E2D9503C0F2E
:10111000E66E000EDA20E66E0B0EDBCFE6FFE66A27
:1011200046D9E552E552E552E5520B0EDB2AE6D7E9
:101130007BEC1EF06CEC18F09AEF04F04C0EE15CC6
:1011400002E2E16AE552E16EE552E7CFD9FF120013
:10115000D9CFE6FFE1CFD9FF510EE126050EDB68BE
:10116000060EDB68070EDB68080EDB68090EDB681D
:101170000A0EDB68D9501E0FE96EDACFEAFF4C0E7B
:10118000EE6E690EEE6E630EEE6E650EEE6E6E0E18
:10119000EE6E730EEE6E650EEE6E200EEE6E700E3F
:1011A000EE6E650EEE6E720EEE6E6D0EEE6E690EEA
:1011B000EE6E740EEE6E3A0EEE6E420EEE6EEE6A4D
:1011C000D9502F0FE96EDACFEAFF500EEE6E650EA2
:1011D000EE6E6E0EEE6EEE6E790EEE6E200EEE6E12
:1011E0004C0EEE6E610EEE6E6E0EEE6E650EEE6ED7
:1011F000200EEE6E360EEE6E330EEE6E2D0EEE6E91
:10120000430EEE6E200EEE6EEE6AD950400FE96E80
:10121000DACFEAFF4C0EEE6E6F0EEE6E6E0EEE6ED5
:10122000640EEE6E6F0EEE6E6E0EEE6E200EEE6EB5
:10123000350EEE6E390EEE6E300EEE6E330EEE6E35
:10124000320EEE6E200EEE6EEE6EEE6EEE6EEE6A0C
:1012500094EC18F0D9500E0FE66E000EDA20E66E10
:10126000260EE66E68EC19F0E552E552E552E76E9F
:101270000D0EE7CFDBFFDB5000E1D9500E0FE66E1D
:10128000000EDA20E66E14EC1BF0E552E552E76E34
:101290000D0EE7CFDBFF0B0EDB6A050EF36E0B0EB8
:1012A000DBCFF4FFF350F45C20E2D9500E0F166E42
:1012B000DACF17F00B0EDB500F011624E96E000E8B
:1012C0001720EA6EEF50E66ED9CF14F0DACF15F0A2
:1012D0000B0EDB501424E96E000E1520EA6EE55269
:1012E000E750EF6E0B0EDB2AD8D70D0EDB5000E176
:1012F000D9CFE6FFDACFE6FF0CEC1CF0E552E55261
:10130000E76E0D0EE7CFDBFFD9CFE6FFDACFE6FFC2
:10131000D950050FE66E000EDA20E66E040EE66E7A
:10132000600EE66E95EC1CF0146E060EE15E145035
:10133000E76E0D0EE7CFDBFFDB502AE1D9501E0F21
:10134000E66E000EDA20E66E040EE66EE66A2FD830
:10135000E552E552E552E552D9502F0FE66E000EE8
:10136000DA20E66E050EE66EE66A21D8E552E55211
:10137000E552E552D950400FE66E000EDA20E66ED7
:10138000060EE66EE66A13D8E552E552E552E552DE
:101390007BEC1EF06CEC18F05DD7510EE15C02E2C4
:1013A000E16AE552E16EE552E7CFD9FF1200D9CFED
:1013B000E6FFE1CFD9FF200EE126FD0EDBCFE6FFF1
:1013C000FE0EDBCFE6FF5E0E146E4B0E156E166A38
:1013D00014C0E6FF15C0E6FF16C0E6FFD950010FA6
:1013E000E66E000EDA20E66ED3EC24F0176E070EE0
:1013F000E15E1750FB0EDBCFE6FFFC0EDBCFE6FF16
:10140000FD0EDBCFE6FFA8EC1DF0E552E552E552FC
:10141000DF6EDF500FE10D0EE66E76EC27F0E55241
:10142000D950010FE66E000EDA20E66E15EC27F0BB
:10143000E552E552200EE15C02E2E16AE552E16E1E
:10144000E552E7CFD9FF1200D9CFE6FFE1CFD9FFB0
:101450003A0EE126050EDB68060EDB68070EDB6838
:10146000080EDB68090EDB680A0EDB68D9501E0F18
:10147000E96EDACFEAFF0A0EEE6E540EEE6E410E02
:10148000EE6E470EEE6E270EEE6E730EEE6E200EB3
:10149000EE6E640EEE6E610EEE6E740EEE6E610E0A
:1014A000EE6E200EEE6E690EEE6E6E0EEE6E200E7D
:1014B000EE6E480EEE6E450EEE6E580EEE6E200E7F
:1014C000EE6E660EEE6E6F0EEE6E720EEE6E6D0EC0
:1014D000EE6E610EEE6E740EEE6E3A0EEE6E200E35
:1014E000EE6EEE6A94EC18F0D9500E0FE66E000E18
:1014F000DA20E66E260EE66E68EC19F0E552E5524B
:10150000E552E76E0D0EE7CFDBFFDB5000E1D9506F
:101510000E0FE66E000EDA20E66E14EC1BF0E552BC
:10152000E552E76E0D0EE7CFDBFF0B0EDB6A050E13
:10153000F36E0B0EDBCFF4FFF350F45C20E2D950D6
:101540000E0F166EDACF17F00B0EDB500F011624BC
:10155000E96E000E1720EA6EEF50E66ED9CF14F058
:10156000DACF15F00B0EDB501424E96E000E1520B7
:10157000EA6EE552E750EF6E0B0EDB2AD8D70D0E60
:10158000DB5014E1D9501E0FE66E000EDA20E66E35
:1015900015EC27F0E552E5520D0EE66E76EC27F0DD
:1015A000E5520A0EE66E5FEC27F0E552D9CFE6FF72
:1015B000DACFE6FF0CEC1CF0E552E552E76E0D0EBB
:1015C000E7CFDBFFD9CFE6FFDACFE6FFD950050F33
:1015D000E66E000EDA20E66EE66A600EE66E95ECC8
:1015E0001CF0146E060EE15E1450E76E0D0EE7CF90
:1015F000DBFF0C0EDB6A040EF36E0C0EDBCFF4FF88
:10160000F350F45C28E2D9500E0FE66E000EDA209B
:10161000E66E0C0EDBCFE6FF36EC1DF0E552E55230
:10162000E552E76E0D0EE7CFDBFFD9500E0FE66EE9
:10163000000EDA20E66E0D0EDBCFE6FF0C0EDBCFE0
:10164000E6FFE66AE4EC15F0146E050EE15E145058
:101650000C0EDB2AD0D7D9CFE6FFDACFE6FFD95080
:10166000050FE66E000EDA20E66E040EE66E600EE2
:10167000E66E95EC1CF0146E060EE15E1450E76EFB
:101680000D0EE7CFDBFF040EF36E0C0EF3CFDBFF86
:10169000080EF36E0C0EDBCFF4FFF350F45C28E27F
:1016A000D9500E0FE66E000EDA20E66E0C0EDBCF80
:1016B000E6FF36EC1DF0E552E552E552E76E0D0E01
:1016C000E7CFDBFFD9500E0FE66E000EDA20E66E94
:1016D0000D0EDBCFE6FF0C0EDBCFE6FFE66AE4EC97
:1016E00015F0146E050EE15E14500C0EDB2AD0D7F7
:1016F000D9CFE6FFDACFE6FFD950050FE66E000E30
:10170000DA20E66E080EE66E600EE66E95EC1CF0D2
:10171000146E060EE15E1450E76E0D0EE7CFDBFF90
:10172000080EF36E0C0EF3CFDBFFF36EDBCFF4FF8E
:10173000F350F45C28E2D9500E0FE66E000EDA206A
:10174000E66E0C0EDBCFE6FF36EC1DF0E552E552FF
:10175000E552E76E0D0EE7CFDBFFD9500E0FE66EB8
:10176000000EDA20E66E0D0EDBCFE6FF0C0EDBCFAF
:10177000E6FFE66AE4EC15F0146E050EE15E145027
:101780000C0EDB2AD2D7D9CFE6FFDACFE6FFD9504D
:10179000050FE66E000EDA20E66E0C0EE66E600EA9
:1017A000E66E95EC1CF0146E060EE15E1450E76ECA
:1017B0000D0EE7CFDBFF0C0EF36EF3CFDBFF100E49
:1017C000F36E0C0EDBCFF4FFF350F45C28E2D9503B
:1017D0000E0FE66E000EDA20E66E0C0EDBCFE6FF93
:1017E00036EC1DF0E552E552E552E76E0D0EE7CFFF
:1017F000DBFFD9500E0FE66E000EDA20E66E0D0EFE
:10180000DBCFE6FF0C0EDBCFE6FFE66AE4EC15F07B
:10181000146E050EE15E14500C0EDB2AD0D7D9CF22
:10182000E6FFDACFE6FFD950050FE66E000EDA20AC
:10183000E66E100EE66E600EE66E95EC1CF0146E11
:10184000060EE15E1450E76E0D0EE7CFDBFF100EC3
:10185000F36E0C0EF3CFDBFF140EF36E0C0EDBCF2A
:10186000F4FFF350F45C28E2D9500E0FE66E000E40
:10187000DA20E66E0C0EDBCFE6FF36EC1DF0E5520B
:10188000E552E552E76E0D0EE7CFDBFFD9500E0FA4
:10189000E66E000EDA20E66E0D0EDBCFE6FF0C0ED4
:1018A000DBCFE6FFE66AE4EC15F0146E050EE15EB0
:1018B00014500C0EDB2AD0D7D9CFE6FFDACFE6FFE3
:1018C000D950050FE66E000EDA20E66E140EE66EB5
:1018D000600EE66E95EC1CF0146E060EE15E145080
:1018E000E76E0D0EE7CFDBFF140EF36E0C0EF3CF99
:1018F000DBFF180EF36E0C0EDBCFF4FFF350F45C3D
:1019000028E2D9500E0FE66E000EDA20E66E0C0EBD
:10191000DBCFE6FF36EC1DF0E552E552E552E76E0F
:101920000D0EE7CFDBFFD9500E0FE66E000EDA206A
:10193000E66E0D0EDBCFE6FF0C0EDBCFE6FFE66AB0
:10194000E4EC15F0146E050EE15E14500C0EDB2A6B
:10195000D0D7D9CFE6FFDACFE6FFD950050FE66E34
:10196000000EDA20E66E180EE66E600EE66E95EC5E
:101970001CF0146E060EE15E1450E76E0D0EE7CFFC
:10198000DBFF180EF36E0C0EF3CFDBFF1C0EF36EB5
:101990000C0EDBCFF4FFF350F45C28E2D9500E0FAD
:1019A000E66E000EDA20E66E0C0EDBCFE6FF36ECBC
:1019B0001DF0E552E552E552E76E0D0EE7CFDBFF75
:1019C000D9500E0FE66E000EDA20E66E0D0EDBCF5C
:1019D000E6FF0C0EDBCFE6FFE66AE4EC15F0146ED2
:1019E000050EE15E14500C0EDB2AD0D7D9CFE6FFEE
:1019F000DACFE6FFD950050FE66E000EDA20E66E6C
:101A00001C0EE66E600EE66E95EC1CF0146E060E73
:101A1000E15E1450E76E0D0EE7CFDBFF1C0EF36E98
:101A20000C0EF3CFDBFF200EF36E0C0EDBCFF4FFBA
:101A3000F350F45C28E2D9500E0FE66E000EDA2067
:101A4000E66E0C0EDBCFE6FF36EC1DF0E552E552FC
:101A5000E552E76E0D0EE7CFDBFFD9500E0FE66EB5
:101A6000000EDA20E66E0D0EDBCFE6FF0C0EDBCFAC
:101A7000E6FFE66AE4EC15F0146E050EE15E145024
:101A80000C0EDB2AD0D7D9CFE6FFDACFE6FFD9504C
:101A9000050FE66E000EDA20E66E200EE66E600E92
:101AA000E66E95EC1CF0146E060EE15E1450E76EC7
:101AB0000D0EE7CFDBFF200EF36E0C0EF3CFDBFF36
:101AC000240EF36E0C0EDBCFF4FFF350F45C28E22F
:101AD000D9500E0FE66E000EDA20E66E0C0EDBCF4C
:101AE000E6FF36EC1DF0E552E552E552E76E0D0ECD
:101AF000E7CFDBFFD9500E0FE66E000EDA20E66E60
:101B00000D0EDBCFE6FF0C0EDBCFE6FFE66AE4EC62
:101B100015F0146E050EE15E14500C0EDB2AD0D7C2
:101B2000D9CFE6FFDACFE6FFD950050FE66E000EFB
:101B3000DA20E66E240EE66E600EE66E95EC1CF082
:101B4000146E060EE15E1450E76E0D0EE7CFDBFF5C
:101B5000240EF36E0C0EF3CFDBFF280EF36E0C0E8B
:101B6000DBCFF4FFF350F45C28E2D9500E0FE66EA1
:101B7000000EDA20E66E0C0EDBCFE6FF36EC1DF031
:101B8000E552E552E552E76E0D0EE7CFDBFFD95087
:101B90000E0FE66E000EDA20E66E0D0EDBCFE6FFCE
:101BA0000C0EDBCFE6FFE66AE4EC15F0146E050ED2
:101BB000E15E14500C0EDB2AD0D7D9CFE6FFDACF86
:101BC000E6FFD950050FE66E000EDA20E66E280E0D
:101BD000E66E600EE66E95EC1CF0146E060EE15E8D
:101BE0001450E76E0D0EE7CFDBFF280EF36E0C0EE0
:101BF000F3CFDBFF2C0EF36E0C0EDBCFF4FFF350B4
:101C0000F45C28E2D9500E0FE66E000EDA20E66E84
:101C10000C0EDBCFE6FF36EC1DF0E552E552E55247
:101C2000E76E0D0EE7CFDBFFD9500E0FE66E000E0C
:101C3000DA20E66E0D0EDBCFE6FF0C0EDBCFE6FF03
:101C4000E66AE4EC15F0146E050EE15E14500C0E1D
:101C5000DB2AD0D7D9CFE6FFDACFE6FFD950050F80
:101C6000E66E000EDA20E66E2C0EE66E600EE66E74
:101C700095EC1CF0146E060EE15E1450E76E0D0E2E
:101C8000E7CFDBFF2C0EF36E0C0EF3CFDBFF300E35
:101C9000F36E0C0EDBCFF4FFF350F45C28E2D95066
:101CA0000E0FE66E000EDA20E66E0C0EDBCFE6FFBE
:101CB00036EC1DF0E552E552E552E76E0D0EE7CF2A
:101CC000DBFFD9500E0FE66E000EDA20E66E0D0E29
:101CD000DBCFE6FF0C0EDBCFE6FFE66AE4EC15F0A7
:101CE000146E050EE15E14500C0EDB2AD0D7D9CF4E
:101CF000E6FFDACFE6FFD950050FE66E000EDA20D8
:101D0000E66E300EE66E600EE66E95EC1CF0146E1C
:101D1000060EE15E1450E76E0D0EE7CFDBFF300ECE
:101D2000F36E0C0EF3CFDBFF340EF36E0C0EDBCF35
:101D3000F4FFF350F45C28E2D9500E0FE66E000E6B
:101D4000DA20E66E0C0EDBCFE6FF36EC1DF0E55236
:101D5000E552E552E76E0D0EE7CFDBFFD9500E0FCF
:101D6000E66E000EDA20E66E0D0EDBCFE6FF0C0EFF
:101D7000DBCFE6FFE66AE4EC15F0146E050EE15EDB
:101D800014500C0EDB2AD0D7D9CFE6FFDACFE6FF0E
:101D9000D950050FE66E000EDA20E66E340EE66EC0
:101DA000600EE66E95EC1CF0146E060EE15E1450AB
:101DB000E76E0D0EE7CFDBFF340EF36E0C0EF3CFA4
:101DC000DBFF380EF36E0C0EDBCFF4FFF350F45C48
:101DD00028E2D9500E0FE66E000EDA20E66E0C0EE9
:101DE000DBCFE6FF36EC1DF0E552E552E552E76E3B
:101DF0000D0EE7CFDBFFD9500E0FE66E000EDA2096
:101E0000E66E0D0EDBCFE6FF0C0EDBCFE6FFE66ADB
:101E1000E4EC15F0146E050EE15E14500C0EDB2A96
:101E2000D0D7D9CFE6FFDACFE6FFD950050FE66E5F
:101E3000000EDA20E66E380EE66E600EE66E95EC69
:101E40001CF0146E060EE15E1450E76E0D0EE7CF27
:101E5000DBFF380EF36E0C0EF3CFDBFF3C0EF36EA0
:101E60000C0EDBCFF4FFF350F45C28E2D9500E0FD8
:101E7000E66E000EDA20E66E0C0EDBCFE6FF36ECE7
:101E80001DF0E552E552E552E76E0D0EE7CFDBFFA0
:101E9000D9500E0FE66E000EDA20E66E0D0EDBCF87
:101EA000E6FF0C0EDBCFE6FFE66AE4EC15F0146EFD
:101EB000050EE15E14500C0EDB2AD0D7D9CFE6FF19
:101EC000DACFE6FFD950050FE66E000EDA20E66E97
:101ED0003C0EE66E600EE66E95EC1CF0146E060E7F
:101EE000E15E1450E76E0D0EE7CFDBFF3C0EF36EA4
:101EF0000C0EF3CFDBFF400EF36E0C0EDBCFF4FFC6
:101F0000F350F45C28E2D9500E0FE66E000EDA2092
:101F1000E66E0C0EDBCFE6FF36EC1DF0E552E55227
:101F2000E552E76E0D0EE7CFDBFFD9500E0FE66EE0
:101F3000000EDA20E66E0D0EDBCFE6FF0C0EDBCFD7
:101F4000E6FFE66AE4EC15F0146E050EE15E14504F
:101F50000C0EDB2AD0D77BEC1EF06CEC18F074EF83
:101F60000AF03A0EE15C02E2E16AE552E16EE55206
:101F7000E7CFD9FF1200D9CFE6FFE1CFD9FF3C0E62
:101F8000E126050EDB68060EDB68070EDB68080E2F
:101F9000DB68090EDB680A0EDB68D9501E0FE96E9C
:101FA000DACFEAFF0A0EEE6E200EEE6E540EEE6EE3
:101FB000410EEE6E470EEE6E270EEE6E730EEE6E57
:101FC000200EEE6E640EEE6E610EEE6E740EEE6E10
:101FD000610EEE6E200EEE6E690EEE6E6E0EEE6E01
:101FE000200EEE6E410EEE6E530EEE6E430EEE6E52
:101FF000490EEE6EEE6E200EEE6E660EEE6E6F0EFB
:10200000EE6E720EEE6E6D0EEE6E610EEE6E740E74
:10201000EE6E3A0EEE6EEE6A94EC18F0D9500E0F9A
:10202000E66E000EDA20E66E260EE66E68EC19F01B
:10203000E552E552E552E76E0D0EE7CFDBFFDB50D0
:1020400000E1D9500E0FE66E000EDA20E66E14ECB9
:102050001BF0E552E552E76E0D0EE7CFDBFF0B0EEE
:10206000DB6A050EF36E0B0EDBCFF4FFF350F45C6E
:1020700020E2D9500E0F166EDACF17F00B0EDB50A0
:102080000F011624E96E000E1720EA6EEF50E66E7F
:10209000D9CF14F0DACF15F00B0EDB501424E96E13
:1020A000000E1520EA6EE552E750EF6E0B0EDB2AAC
:1020B000D8D70D0EDB5014E1D9501E0FE66E000E7E
:1020C000DA20E66E15EC27F0E552E5520D0EE66ECD
:1020D00076EC27F0E5520A0EE66E5FEC27F0E5524B
:1020E000D9CFE6FFDACFE6FF0CEC1CF0E552E55263
:1020F000E76E0D0EE7CFDBFFD9CFE6FFDACFE6FFC5
:10210000D950050FE66E000EDA20E66EE66A600E24
:10211000E66E95EC1CF0146E060EE15E1450E76E50
:102120000D0EE7CFDBFF0C0EDB6A040EF36E0C0E18
:10213000DBCFF4FFF350F45C2BE2D9500E0FE66EC8
:10214000000EDA20E66E0C0EDBCFE6FF36EC1DF05B
:10215000E552E552E552E76E0D0EE7CFDBFFD950B1
:102160000E0FE66E000EDA20E66E0D0EDBCFE6FFF8
:102170000C0EDBCFE6FFE66A000EE66EE66A76EC52
:1021800015F0146E070EE15E14500C0EDB2ACDD74D
:10219000D9CFE6FFDACFE6FFD950050FE66E000E85
:1021A000DA20E66E040EE66E600EE66E95EC1CF02C
:1021B000146E060EE15E1450E76E0D0EE7CFDBFFE6
:1021C000040EF36E0C0EF3CFDBFF080EF36E0C0E55
:1021D000DBCFF4FFF350F45C2BE2D9500E0FE66E28
:1021E000000EDA20E66E0C0EDBCFE6FF36EC1DF0BB
:1021F000E552E552E552E76E0D0EE7CFDBFFD95011
:102200000E0FE66E000EDA20E66E0D0EDBCFE6FF57
:102210000C0EDBCFE6FFE66A010EE66EE66A76ECB0
:1022200015F0146E070EE15E14500C0EDB2ACDD7AC
:10223000D9CFE6FFDACFE6FFD950050FE66E000EE4
:10224000DA20E66E080EE66E600EE66E95EC1CF087
:10225000146E060EE15E1450E76E0D0EE7CFDBFF45
:10226000080EF36E0C0EF3CFDBFFF36EDBCFF4FF43
:10227000F350F45C2BE2D9500E0FE66E000EDA201C
:10228000E66E0C0EDBCFE6FF36EC1DF0E552E552B4
:10229000E552E76E0D0EE7CFDBFFD9500E0FE66E6D
:1022A000000EDA20E66E0D0EDBCFE6FF0C0EDBCF64
:1022B000E6FFE66A020EE66EE66A76EC15F0146E4C
:1022C000070EE15E14500C0EDB2ACFD7D9CFE6FF04
:1022D000DACFE6FFD950050FE66E000EDA20E66E83
:1022E0000C0EE66E600EE66E95EC1CF0146E060E9B
:1022F000E15E1450E76E0D0EE7CFDBFF0C0EF36EC0
:10230000F3CFDBFF100EF36E0C0EDBCFF4FFF350B8
:10231000F45C2AE2D9500E0FE66E000EDA20E66E6B
:102320000C0EDBCFE6FF36EC1DF0E552E552E55230
:10233000E76E0D0EE7CFDBFFD9500E0FE66E000EF5
:10234000DA20E66E0D0EDBCFE6FF0C0EDBCFE6FFEC
:10235000E66A030EE66EE66AC9DB146E070EE15EFE
:1023600014500C0EDB2ACED7D9CFE6FFDACFE6FF2A
:10237000D950050FE66E000EDA20E66E100EE66EFE
:10238000600EE66E95EC1CF0146E060EE15E1450C5
:10239000E76E0D0EE7CFDBFF100EF36E0C0EF3CFE2
:1023A000DBFF140EF36E0C0EDBCFF4FFF350F45C86
:1023B0002AE2D9500E0FE66E000EDA20E66E0C0E01
:1023C000DBCFE6FF36EC1DF0E552E552E552E76E55
:1023D0000D0EE7CFDBFFD9500E0FE66E000EDA20B0
:1023E000E66E0D0EDBCFE6FF0C0EDBCFE6FFE66AF6
:1023F000040EE66EE66A7ADB146E070EE15E145098
:102400000C0EDB2ACED7D9CFE6FFDACFE6FFD950C4
:10241000050FE66E000EDA20E66E140EE66E600E14
:10242000E66E95EC1CF0146E060EE15E1450E76E3D
:102430000D0EE7CFDBFF140EF36E0C0EF3CFDBFFB8
:10244000180EF36E0C0EDBCFF4FFF350F45C2AE2AF
:10245000D9500E0FE66E000EDA20E66E0C0EDBCFC2
:10246000E6FF36EC1DF0E552E552E552E76E0D0E43
:10247000E7CFDBFFD9500E0FE66E000EDA20E66ED6
:102480000D0EDBCFE6FF0C0EDBCFE6FFE66A050E96
:10249000E66EE66A2BDB146E070EE15E14500C0E3E
:1024A000DB2ACED7D9CFE6FFDACFE6FFD950050F2A
:1024B000E66E000EDA20E66E180EE66E600EE66E30
:1024C00095EC1CF0146E060EE15E1450E76E0D0ED6
:1024D000E7CFDBFF180EF36E0C0EF3CFDBFF1C0E05
:1024E000F36E0C0EDBCFF4FFF350F45C2AE2D9500C
:1024F0000E0FE66E000EDA20E66E0C0EDBCFE6FF66
:1025000036EC1DF0E552E552E552E76E0D0EE7CFD1
:10251000DBFFD9500E0FE66E000EDA20E66E0D0ED0
:10252000DBCFE6FF0C0EDBCFE6FFE66A060EE66EBB
:10253000E66ADCDA146E070EE15E14500C0EDB2A3C
:10254000CED7D9CFE6FFDACFE6FFD950050FE66E3A
:10255000000EDA20E66E1C0EE66E600EE66E95EC5E
:102560001CF0146E060EE15E1450E76E0D0EE7CF00
:10257000DBFF1C0EF36E0C0EF3CFDBFF200EF36EB1
:102580000C0EDBCFF4FFF350F45C2AE2D9500E0FAF
:10259000E66E000EDA20E66E0C0EDBCFE6FF36ECC0
:1025A0001DF0E552E552E552E76E0D0EE7CFDBFF79
:1025B000D9500E0FE66E000EDA20E66E0D0EDBCF60
:1025C000E6FF0C0EDBCFE6FFE66A070EE66EE66A74
:1025D0008DDA146E070EE15E14500C0EDB2ACED796
:1025E000D9CFE6FFDACFE6FFD950050FE66E000E31
:1025F000DA20E66E200EE66E600EE66E95EC1CF0BC
:10260000146E060EE15E1450E76E0D0EE7CFDBFF91
:10261000200EF36E0C0EF3CFDBFF240EF36E0C0EC8
:10262000DBCFF4FFF350F45C2AE2D9500E0FE66ED4
:10263000000EDA20E66E0C0EDBCFE6FF36EC1DF066
:10264000E552E552E552E76E0D0EE7CFDBFFD950BC
:102650000E0FE66E000EDA20E66E0D0EDBCFE6FF03
:102660000C0EDBCFE6FFE66A080EE66EE66A3EDA9F
:10267000146E070EE15E14500C0EDB2ACED7D9CFB4
:10268000E6FFDACFE6FFD950050FE66E000EDA203E
:10269000E66E240EE66E600EE66E95EC1CF0146E8F
:1026A000060EE15E1450E76E0D0EE7CFDBFF240E41
:1026B000F36E0C0EF3CFDBFF280EF36E0C0EDBCFA8
:1026C000F4FFF350F45C2AE2D9500E0FE66E000ED0
:1026D000DA20E66E0C0EDBCFE6FF36EC1DF0E5529D
:1026E000E552E552E76E0D0EE7CFDBFFD9500E0F36
:1026F000E66E000EDA20E66E0D0EDBCFE6FF0C0E66
:10270000DBCFE6FFE66A090EE66EE66AEFD9146EE5
:10271000070EE15E14500C0EDB2ACED7D9CFE6FFB0
:10272000DACFE6FFD950050FE66E000EDA20E66E2E
:10273000280EE66E600EE66E95EC1CF0146E060E2A
:10274000E15E1450E76E0D0EE7CFDBFF280EF36E4F
:102750000C0EF3CFDBFF2C0EF36E0C0EDBCFF4FF71
:10276000F350F45C2AE2D9500E0FE66E000EDA2028
:10277000E66E0C0EDBCFE6FF36EC1DF0E552E552BF
:10278000E552E76E0D0EE7CFDBFFD9500E0FE66E78
:10279000000EDA20E66E0D0EDBCFE6FF0C0EDBCF6F
:1027A000E6FFE66A0A0EE66EE66AA0D9146E070E28
:1027B000E15E14500C0EDB2ACED7D9CFE6FFDACF7C
:1027C000E6FFD950050FE66E000EDA20E66E2C0EFD
:1027D000E66E600EE66E95EC1CF0146E060EE15E81
:1027E0001450E76E0D0EE7CFDBFF2C0EF36E0C0ED0
:1027F000F3CFDBFF300EF36E0C0EDBCFF4FFF350A4
:10280000F45C2AE2D9500E0FE66E000EDA20E66E76
:102810000C0EDBCFE6FF36EC1DF0E552E552E5523B
:10282000E76E0D0EE7CFDBFFD9500E0FE66E000E00
:10283000DA20E66E0D0EDBCFE6FF0C0EDBCFE6FFF7
:10284000E66A0B0EE66EE66A51D9146E070EE15E7B
:1028500014500C0EDB2ACED7D9CFE6FFDACFE6FF35
:10286000D950050FE66E000EDA20E66E300EE66EE9
:10287000600EE66E95EC1CF0146E060EE15E1450D0
:10288000E76E0D0EE7CFDBFF300EF36E0C0EF3CFCD
:10289000DBFF340EF36E0C0EDBCFF4FFF350F45C71
:1028A00029E2D9500E0FE66E000EDA20E66E0C0E0D
:1028B000DBCFE6FF36EC1DF0E552E552E552E76E60
:1028C0000D0EE7CFDBFFD9500E0FE66E000EDA20BB
:1028D000E66E0D0EDBCFE6FF0C0EDBCFE6FFE66A01
:1028E000E66EE66A03D9146E070EE15E14500C0E14
:1028F000DB2ACFD7D9CFE6FFDACFE6FFD950050FD5
:10290000E66E000EDA20E66E340EE66E600EE66EBF
:1029100095EC1CF0146E060EE15E1450E76E0D0E81
:10292000E7CFDBFF340EF36E0C0EF3CFDBFF380E78
:10293000F36E0C0EDBCFF4FFF350F45C2AE2D950B7
:102940000E0FE66E000EDA20E66E0C0EDBCFE6FF11
:1029500036EC1DF0E552E552E552E76E0D0EE7CF7D
:10296000DBFFD9500E0FE66E000EDA20E66E0D0E7C
:10297000DBCFE6FF0C0EDBCFE6FFE66A0D0EE66E60
:10298000E66AB4D8146E070EE15E14500C0EDB2A12
:10299000CED7D9CFE6FFDACFE6FFD950050FE66EE6
:1029A000000EDA20E66E380EE66E600EE66E95ECEE
:1029B0001CF0146E060EE15E1450E76E0D0EE7CFAC
:1029C000DBFF380EF36E0C0EF3CFDBFF3C0EF36E25
:1029D0000C0EDBCFF4FFF350F45C2AE2D9500E0F5B
:1029E000E66E000EDA20E66E0C0EDBCFE6FF36EC6C
:1029F0001DF0E552E552E552E76E0D0EE7CFDBFF25
:102A0000D9500E0FE66E000EDA20E66E0D0EDBCF0B
:102A1000E6FF0C0EDBCFE6FFE66A0E0EE66EE66A18
:102A200065D8146E070EE15E14500C0EDB2ACED76B
:102A3000D9CFE6FFDACFE6FFD950050FE66E000EDC
:102A4000DA20E66E3C0EE66E600EE66E95EC1CF04B
:102A5000146E060EE15E1450E76E0D0EE7CFDBFF3D
:102A60003C0EF36E0C0EF3CFDBFF400EF36E0C0E3C
:102A7000DBCFF4FFF350F45C2AE2D9500E0FE66E80
:102A8000000EDA20E66E0C0EDBCFE6FF36EC1DF012
:102A9000E552E552E552E76E0D0EE7CFDBFFD95068
:102AA0000E0FE66E000EDA20E66E0D0EDBCFE6FFAF
:102AB0000C0EDBCFE6FFE66A0F0EE66EE66A16D86E
:102AC000146E070EE15E14500C0EDB2ACED77BECA1
:102AD0001EF002DB0EEF10F03C0EE15C02E2E16A58
:102AE000E552E16EE552E7CFD9FF1200D9CFE6FFFC
:102AF000E1CFD9FF180EE126FB0EDBCFE6FFFC0E7F
:102B0000DBCFE6FFFD0EDBCFE6FFFE0EDBCFE6FF01
:102B1000460E146E4B0E156E166A14C0E6FF15C0F5
:102B2000E6FF16C0E6FFD950020FE66E000EDA206F
:102B3000E66ED3EC24F0176E090EE15E1750FA0E24
:102B4000DB5038E1D950020FE66E000EDA20E66E57
:102B500015EC27F0E552E552DE6ADD6ADECF14F0AF
:102B6000DDCF15F0D890155004E6100E145C000E61
:102B700015581BE2F80EDBCF14F0F90EDBCF15F081
:102B8000DE501424E96EDD501520EA6EEF50E66E3B
:102B900076EC27F0E552050EE66E5FEC27F0E55285
:102BA000DF2A010E01E3DB2AD9D70D0EE66E76ECA3
:102BB00027F0E552180EE15C02E2E16AE552E16EAF
:102BC000E552E7CFD9FF1200D9CFE6FFE1CFD9FF19
:102BD000380EE126FD0EDBCFE6FFFE0EDBCFE6FF73
:102BE000400E146E4B0E156E166A14C0E6FF15C02B
:102BF000E6FF16C0E6FFD950020FE66E000EDA209F
:102C0000E66ED3EC24F0176E070EE15E17500F0E40
:102C1000E76EFA0EDBCFE9FFFB0EDBCFEAFFE750F2
:102C2000E926000EEA22EF50E66EE66A0E0EE76E27
:102C3000FA0EDBCFE9FFFB0EDBCFEAFFE750E92618
:102C4000000EEA22EF50E66EE66A0D0EE76EFA0E0F
:102C5000DBCFE9FFFB0EDBCFEAFFE750E926000EF2
:102C6000EA22EF50E66EE66A0C0EE76EFA0EDBCF54
:102C7000E9FFFB0EDBCFEAFFE750E926000EEA2270
:102C8000EF50E66EE66A0B0EE76EFA0EDBCFE9FF59
:102C9000FB0EDBCFEAFFE750E926000EEA22EF50F9
:102CA000E66EE66A0A0EE76EFA0EDBCFE9FFFB0E70
:102CB000DBCFEAFFE750E926000EEA22EF50E66E8E
:102CC000E66A090EE76EFA0EDBCFE9FFFB0EDBCFFB
:102CD000EAFFE750E926000EEA22EF50E66EE66AC8
:102CE000080EE76EFA0EDBCFE9FFFB0EDBCFEAFF43
:102CF000E750E926000EEA22EF50E66EE66A070E7C
:102D0000E76EFA0EDBCFE9FFFB0EDBCFEAFFE75001
:102D1000E926000EEA22EF50E66EE66A060EE76E3E
:102D2000FA0EDBCFE9FFFB0EDBCFEAFFE750E92627
:102D3000000EEA22EF50E66EE66A050EE76EFA0E26
:102D4000DBCFE9FFFB0EDBCFEAFFE750E926000E01
:102D5000EA22EF50E66EE66A040EE76EFA0EDBCF6B
:102D6000E9FFFB0EDBCFEAFFE750E926000EEA227F
:102D7000EF50E66EE66A030EE76EFA0EDBCFE9FF70
:102D8000FB0EDBCFEAFFE750E926000EEA22EF5008
:102D9000E66EE66A020EE76EFA0EDBCFE9FFFB0E87
:102DA000DBCFEAFFE750E926000EEA22EF50E66E9D
:102DB000E66A010EE76EFA0EDBCFE9FFFB0EDBCF12
:102DC000EAFFE750E926000EEA22EF50E66EE66AD7
:102DD000FA0EDBCFE9FFFB0EDBCFEAFFEF50E66E2A
:102DE000E66A000E146E4B0E156E166A14C0E6FFEE
:102DF00015C0E6FF16C0E6FFD950070FE66E000EBD
:102E0000DA20E66ED3EC24F0176E250EE15E175043
:102E1000FC0EDB5019E1D950020FE66E000EDA20ED
:102E2000E66E15EC27F0E552E552D950070FE66E35
:102E3000000EDA20E66E15EC27F0E552E5520D0E95
:102E4000E66E76EC27F0E552380EE15C02E2E16ACC
:102E5000E552E16EE552E7CFD9FF1200D9CFE6FF88
:102E6000E1CFD9FF6A0EE126D9502D0FE96EDACFF6
:102E7000EAFF430EEE6E610EEE6E720EEE6E640EA3
:102E8000EE6E200EEE6E640EEE6E650EEE6E740E3D
:102E9000EE6E650EEE6E630EEE6E740EEE6E650EE9
:102EA000EE6E640EEE6E0D0EEE6EEE6AD9503C0FB5
:102EB000E96EDACFEAFF200EEE6E2C0EEE6E200EDB
:102EC000EE6EEE6AD950400FE96EDACFEAFF200EBF
:102ED000EE6EEE6EEE6EEE6AD950440FE96EDACF0A
:102EE000EAFF540EEE6E680EEE6E650EEE6E200E6C
:102EF000EE6E630EEE6E610EEE6E720EEE6E640E90
:102F0000EE6E270EEE6E730EEE6E200EEE6E6E0EF1
:102F1000EE6E750EEE6E6D0EEE6E620EEE6E650E60
:102F2000EE6E720EEE6E200EEE6E690EEE6E730E8B
:102F3000EE6E3A0EEE6E200EEE6E0D0EEE6EEE6A38
:102F4000D9505C0FE96EDACFEAFF480EEE6E650EDF
:102F5000EE6E6C0EEE6EEE6E6F0EEE6E200EEE6E80
:102F60006D0EEE6E610EEE6E730EEE6E740EEE6E04
:102F7000650EEE6E720EEE6E210EEE6EEE6AD4D817
:102F8000D950070FE66E000EDA20E66E260EE66ECA
:102F90009FD9E552E552E552E76E060EE7CFDBFF1B
:102FA000DB5005E10D0EE66E76EC27F0E552D950C8
:102FB000070FE66E000EDA20E66E36DBE552E552CC
:102FC000E76E060EE7CFDBFF050EDB6AF36EDBCFA5
:102FD000F4FFF350F45C20E2D950070F166EDACFFD
:102FE00017F0050EDB500F011624E96E000E1720B6
:102FF000EA6EEF50E66ED9CF14F0DACF15F0050E79
:10300000DB501424E96E000E1520EA6EE552E750FD
:10301000EF6E050EDB2ADAD7060EDB5050E1D950F1
:10302000440FE66E000EDA20E66E15EC27F0E5524E
:10303000E5520A0EDBCFE6FFE66A090EDBCFE6FFBC
:10304000E66A080EDBCFE6FFE66A070EDBCFE6FF97
:10305000E66AF00E146E4A0E156E166A14C0E6FF8C
:1030600015C0E6FF16C0E6FFD950170FE66E000E3A
:10307000DA20E66ED3EC24F0176E0D0EE15E1750E9
:10308000D9502D0FE66E000EDA20E66E15EC27F013
:10309000E552E5520D0EE66E76EC27F0E552D9507A
:1030A000170FE66E000EDA20E66E15EC27F0E552FB
:1030B000E5520D0EE66E76EC27F0E5520DD87BEC6E
:1030C0001EF05ED76A0EE15C02E2E16AE552E16E53
:1030D000E552E7CFD9FF1200D9CFE6FFE1CFD9FF04
:1030E000020EE126DE6ADD6ADECF14F0DDCF15F0D8
:1030F000D890155004E6050E145C000E15580AE22F
:10310000F00EE66E5FEC27F0E552DF2A010E01E3D8
:10311000DB2AEAD7020EE15C02E2E16AE552E16EE7
:10312000E552E7CFD9FF12004D0EE66EE66A2C0E8F
:10313000E66EC0EC25F0E552E552E552CBEC27F007
:10314000DFEC27F093988188A6EF18F08188B8D833
:103150008D0EE66E2A0EE66E26D8E552E5523E0E3C
:10316000E66E2B0EE66E1FD8E552E5521E0EE66E99
:103170002D0EE66E18D8E552E552E66A2C0EE66E84
:1031800012D8E552E552400EE66E150EE66E0BD8EB
:10319000E552E5523D0EE66E110EE66E04D8E5529C
:1031A000E5523FEF19F0D9CFE6FFE1CFD9FFDFECD1
:1031B00027F0FE0EDB50E8247E0BE66E7FEC26F057
:1031C000E552FD0EDBCFE6FF7FEC26F0E552DDECAD
:1031D00027F0E552E7CFD9FF1200D9CFE6FFE1CFC4
:1031E000D9FFE652DFEC27F0FE0EDB50E8247E0B21
:1031F0008009E66E7FEC26F0E552E66A7FEC26F069
:10320000E552DF6EDDEC27F0DF5000D0E552E552ED
:10321000E7CFD9FF1200D9CFE6FFE1CFD9FFE652C1
:10322000FE0EDBCFE6FFD9DFE552DF6EFD0EDB5091
:10323000DF10E66EFE0EDBCFE6FFB5DFE552E552AE
:10324000E552E552E7CFD9FF1200D9CFE6FFE1CF33
:10325000D9FFE652FE0EDBCFE6FFBFDFE552DF6EA1
:10326000FD0EDB1CDF14E66EFE0EDBCFE6FF9BDF00
:10327000E552E552E552E552E7CFD9FF1200D9CF2A
:10328000E6FFE1CFD9FFE652140EE66EA6DFE55267
:10329000DF6E030EDF1407E1030EE66E140EE66E1A
:1032A000BADFE552E552E552E552E7CFD9FF120009
:1032B000030EE66E140EE66EC8DFE552E55212000C
:1032C0000F0EE66E010EE66E6EDFE552E55212005D
:1032D000D9CFE6FFE1CFD9FF030EE126070EE66E58
:1032E0000D0EE66E60DFE552E552FC0EDBCFE9FF26
:1032F000FD0EDBCFEAFFFE0EDBCFEFFFD950010F53
:10330000E66E000EDA20E66EFC0EDBCFE6FFFD0E69
:10331000DBCFE6FF010EE66EFC0EDBCFE6FFFD0E17
:10332000DBCFE6FF0C0EE66E21D8146E080EE15ED0
:103330001450DF6EDF500AE1D950010FE96EDACF89
:10334000EAFF100EEE1801E1ED5002E0020EDF6E12
:10335000DF50146E030EE15C03E200D0E16AE55237
:10336000E16E1450E552E7CFD9FF1200D9CFE6FF46
:10337000E1CFD9FF070EE126020EDF6E010EDB6AF8
:10338000020EDB6AFE0EDB500C0A0CE0020A01E0C2
:1033900012D0DE52120EDD6E100EF36E020EF3CF5F
:1033A000DBFF09D0DE52770EDD6E300EF36E020EBB
:1033B000F3CFDBFF00D0010EDB508009E66E020E7A
:1033C000E66EF1DEE552E552800EE66E040EE66E24
:1033D0003CDFE552E552800EE66E0A0EE66E1BDF1C
:1033E000E552E552E66A010EE66EDDDEE552E55293
:1033F000050EDB6A060EDB6A050EDBCF14F0060E47
:10340000DBCF15F0FB0EDB50166E176A1650145CFE
:10341000175015581BE2050EDBCF14F0060EDBCF5C
:1034200015F0FC0EDB501424E96EFD0EDB50152068
:10343000EA6EEF50E66E090EE66EB5DEE552E55235
:10344000050EDB2A060E01E3DB2AD6D7FE0EDBCF04
:10345000E6FF010EE66EA7DEE552E552FE0EDB50FA
:103460000C0807E1800EE66E0D0EE66ED4DEE55226
:10347000E552D00EF36E050EF3CFDBFF070EF36EB1
:10348000060EF3CFDBFF040EE66EA7DEE552E76E15
:10349000040EE7CFDBFF050EDB06060E01E2DB06BE
:1034A000D950050FE96EDACFEAFFEE50ED100CE0CF
:1034B000040EDB50010B08E1020EDBCFE6FF040E29
:1034C000DB50E552E714DFE0800EE66E0D0EE66E8F
:1034D000BCDEE552E552D950050FE96EDACFEAFFBE
:1034E000EE50ED1001E192D0060EE66E76DEE5526A
:1034F0001B0B01E089D0DF6A010EDBCFE6FF040E73
:10350000DB50E552E714010B02E0010EDF6EFE0E08
:10351000DB500C0801E077D00A0EE66E5EDEE55265
:10352000E76E040EE7CFDBFF0C0EE66E56DEE552CB
:10353000070BE76E030EE7CFDBFFDB5015E0030E52
:10354000DBCFE6FF040EDB04080DF350E552E72461
:10355000E66EF70EDBCFE9FFF80EDBCFEAFFE552B0
:10356000E750EE6EED6A0FD0040EDB50080DF350FD
:10357000E66EF70EDBCFE9FFF80EDBCFEAFFE55290
:10358000E750EE6EED6A040EDB5005E1010EF36EBE
:10359000040EF3CFDBFF040EDB50100805E2100E23
:1035A000F36E040EF3CFDBFF050EDB6A060EDB6A5B
:1035B000050EDBCF14F0060EDBCF15F0040EDB504A
:1035C000166E176A1650145C175015581CE2090E37
:1035D000E66E03DEE552E66E050EDBCF14F0060E56
:1035E000DBCF15F0F90EDB501424E96EFA0EDB5038
:1035F0001520EA6EE552E750EF6E050EDB2A060E47
:1036000001E3DB2AD5D702D0020EDF6EDF50146E45
:10361000070EE15C03E200D0E16AE552E16E14506E
:10362000E552E7CFD9FF1200D9CFE6FFE1CFD9FFAE
:10363000050EE126020EDB6AE66A0D0EE66EB3DDCC
:10364000E552E552FD0EDBCFE9FFFE0EDBCFEAFFD0
:10365000930EEF6E010EE76EFD0EDBCFE9FFFE0E5F
:10366000DBCFEAFFE750E926000EEA22200EEF6EDC
:10367000D950030FE66E000EDA20E66EFD0EDBCFAA
:10368000E6FFFE0EDBCFE6FF020EE66EFD0EDBCFA1
:10369000E6FFFE0EDBCFE6FF0C0EE66E67DE146E75
:1036A000080EE15E1450DF6EDF5037E1010EDB6A79
:1036B000040EF36E010EDBCFF4FFF350F45C18E25E
:1036C000010EDB50E76EFD0EDBCFE9FFFE0EDBCF18
:1036D000EAFFE750E926000EEA22020EDBCFE7FF01
:1036E000EF50E71A020EE7CFDBFF010EDB2AE0D72F
:1036F000010EDB50E76EFD0EDBCFE9FFFE0EDBCFE8
:10370000EAFFE750E926000EEA22EF50F36E020EC0
:10371000DB50F35C02E0020EDF6EDF50146E050E2C
:10372000E15C03E200D0E16AE552E16E1450E5523B
:10373000E7CFD9FF1200D9CFE6FFE1CFD9FF020EC4
:10374000E126040EE66E050EE66E7FDDE552E552DB
:10375000800EE66E0A0EE66E5EDDE552E552DF6A29
:10376000FC0EDB50DF5C15E2DF50E76EFD0EDBCFB9
:10377000E9FFFE0EDBCFEAFFE750E926000EEA2262
:10378000EF50E66E090EE66E0EDDE552E552DF2AD9
:10379000E7D7030EE66E010EE66E05DDE552E55253
:1037A000DF68050EE66E19DDE552E76E010EE7CF24
:1037B000DBFFDF06DF5004E0010EDB50040BF1E01D
:1037C000220EE66E0ADDE552E66EFA0EDBCFE9FF69
:1037D000FB0EDBCFEAFFE552E750EF6E210EE66EFF
:1037E000FCDCE552E66E010EE76EFA0EDBCFE9FF78
:1037F000FB0EDBCFEAFFE750E926000EEA22E55296
:10380000E750EF6E020EE15C02E2E16AE552E16E22
:10381000E552E7CFD9FF1200D9CFE6FFE1CFD9FFBC
:103820000E0EE126930EF36E050EF3CFDBFF700E46
:10383000F36E060EF3CFDBFFDF6A050EDF5C20E2DE
:10384000DF50E76EFD0EDBCFE9FFFE0EDBCFEAFFB8
:10385000E750E926000EEA22EF50E66ED950050F38
:10386000146EDACF15F0020EDF240F011424E96E76
:10387000000E1520EA6EE552E750EF6EDF2ADDD725
:10388000D9500C0FE66E000EDA20E66E070EE66EDB
:10389000D950050FE66E000EDA20E66E4CDF146E8E
:1038A000050EE15E1450D950030FE66E000EDA20CB
:1038B000E66ED950050FE66E000EDA20E66E090EB0
:1038C000E66ED950050FE66E000EDA20E66E0C0E9D
:1038D000E66E4CDD146E080EE15E1450E76E010ECC
:1038E000E7CFDBFFDB5011E1D950030FE96EDACFF0
:1038F000EAFF180EEE1801E1ED5007E1050EDB506E
:10390000E76E020EE7CFDBFF02D0020EDB6ADB5070
:10391000146E0E0EE15C03E200D0E16AE552E16E46
:103920001450E552E7CFD9FF1200D9CFE6FFE1CF1F
:10393000D9FF100EE126FE0EDB50E76E040EE7CF36
:10394000DBFFFD0EDB50E76E050EE7CFDBFF030E5E
:10395000DB6A060EF36E030EDBCFF4FFF350F45C6C
:1039600023E2030EDB50E76EFB0EDBCFE9FFFC0E1C
:10397000DBCFEAFFE750E926000EEA22EF50E66EC1
:10398000D950040F146EDACF15F0030EDB50020F7E
:103990000F011424E96E000E1520EA6EE552E7507F
:1039A000EF6E030EDB2AD5D7030EDB6A040EF36E2F
:1039B000030EDBCFF4FFF350F45C23E2030EDB5085
:1039C000E76EF90EDBCFE9FFFA0EDBCFEAFFE75037
:1039D000E926000EEA22EF50E66ED950040F146E6D
:1039E000DACF15F0030EDB50080F0F011424E96E37
:1039F000000E1520EA6EE552E750EF6E030EDB2A4B
:103A0000D5D7D950010FE66E000EDA20E66ED950F8
:103A1000040FE66E000EDA20E66E0C0EE66ED9504C
:103A2000040FE66E000EDA20E66E0E0EE66E9EDCE9
:103A3000146E080EE15E1450DF6EDF5007E1080ED1
:103A4000E66EEDEC18F0E552080B02E1020EDF6EB7
:103A5000DF50146E100EE15C03E200D0E16AE55223
:103A6000E16E1450E552E7CFD9FF1200D9CFE6FF3F
:103A7000E1CFD9FF030EE126FC0EDBCFE9FFFD0EFF
:103A8000DBCFEAFF300EEF6E010EE76EFC0EDBCFF0
:103A9000E9FFFD0EDBCFEAFFE750E926000EEA2240
:103AA000FE0EDBCFEFFF020EE76EFC0EDBCF14F055
:103AB000FD0EDBCF15F0E7501426000E152214C0C2
:103AC000E6FF15C0E6FF020EE66EFC0EDBCFE6FF5A
:103AD000FD0EDBCFE6FF2FDE166E050EE15E165003
:103AE000D950010FE66E000EDA20E66EFC0EDBCF39
:103AF000E6FFFD0EDBCFE6FF040EE66EFC0EDBCF2D
:103B0000E6FFFD0EDBCFE6FF0C0EE66E2FDC146E3B
:103B1000080EE15E1450DF6EDF500AE1D950010F4C
:103B2000E96EDACFEAFF900EEE1801E1ED5002E007
:103B3000020EDF6EDF50146E030EE15C03E200D074
:103B4000E16AE552E16E1450E552E7CFD9FF120069
:103B5000D9CFE6FFE1CFD9FF160EE126A00EF36E16
:103B6000040EF3CFDBFFFE0EDB50E76E050EE7CF52
:103B7000DBFFD950060FE66E000EDA20E66E020E6D
:103B8000E66ED950040FE66E000EDA20E66ED3DD45
:103B9000146E050EE15E1450D950010FE66E000E52
:103BA000DA20E66ED950040FE66E000EDA20E66EDB
:103BB000040EE66ED950040FE66E000EDA20E66EB3
:103BC0000C0EE66EB6EC19F0146E080EE15E1450A1
:103BD000DF6EDF500FE1D950010FE96EDACFEAFF57
:103BE000040EEE1801E1ED5005E1040EDB500F0B61
:103BF0000A0802E0020EDF6EDF506FE1030EDB6A9F
:103C0000100EF36E030EDBCFF4FFF350F45C22E2F0
:103C1000030EDB50E76EFC0EDBCFE9FFFD0EDBCFC2
:103C2000EAFFE750E926000EEA22EF50E66ED9508F
:103C3000040F146EDACF15F0030EDB500F011424BD
:103C4000E96E000E1520EA6EE552E750EF6E030EA6
:103C5000DB2AD6D7D950140FE66E000EDA20E66EB6
:103C6000100EE66ED950040FE66E000EDA20E66EF6
:103C700062DD146E050EE15E1450D950010FE66E40
:103C8000000EDA20E66ED950040FE66E000EDA2040
:103C9000E66E120EE66ED950040FE66E000EDA20C4
:103CA000E66E0C0EE66EB6EC19F0146E080EE15ED0
:103CB0001450DF6EDF500FE1D950010FE96EDACFFB
:103CC000EAFF040EEE1801E1ED5005E1040EDB50B1
:103CD0000F0B0A0802E0020EDF6EDF50146E160EA4
:103CE000E15C03E200D0E16AE552E16E1450E55276
:103CF000E7CFD9FF1200D9CFE6FFE1CFD9FF070EFA
:103D0000E126500EF36E030EF3CFDBFF040EDB6AE9
:103D1000D950050FE66E000EDA20E66E020EE66E52
:103D2000D950030FE66E000EDA20E66E04DD146E45
:103D3000050EE15E1450D950010FE66E000EDA2038
:103D4000E66ED950030FE66E000EDA20E66E040E22
:103D5000E66ED950030FE66E000EDA20E66E0C0E0A
:103D6000E66EB6EC19F0146E080EE15E1450DF6ECC
:103D7000070EE15C02E2E16AE552E16EE552E7CF4F
:043D8000D9FF120055
:0C3D8400FEEC23F0FB0EDBCFF3FFDB06B0
:103D9000F35000090AE04CEC24F0FA0EB7EC24F0E2
:103DA000F3E1151CF1E1010E01D0000E2DEF24F01E
:103DB000FEEC23F03B0EE12402E3E168E652E16E03
:103DC000010EDB6A020EDB6AF90EDBCFF6FFFA0E9C
:103DD000DBCFF7FFFB0EDBCFF8FF0800F550DF6EFF
:103DE000DF5002E151EF23F0250EDF5C02E044EFEB
:103DF00023F0030EDB6A040EDB6A050EDB6A060E97
:103E0000DB6A070EDB6A66EC23F02D0EDF5C0CE04C
:103E10002B0EDF5C09E0200EDF5C06E0230EDF5C8A
:103E200003E0300EDF5C1AE1DF50300A14E0130AC1
:103E30000FE0030A0AE00B0A05E0060AE4E1030EBC
:103E4000DB80E1D7030EDB82DED7030EDB84DBD71A
:103E5000030EDB86D8D7030EDB88D5D72A0EDF5CAE
:103E60001BE162EC23F0B0EC23F010E0030EDB80EA
:103E700008680968130EDBCF0DF0140EDBCF0EF0CF
:103E8000E8EC26F0040E06C0DBFF03D0130E99EC1D
:103E900023F066EC23F00BD0090EDB6A07EC24F06C
:103EA00003E07BEC24F0FAD7090E99EC23F0030E23
:103EB000DBB0DB982E0EDF5C1BE166EC23F02A0EF4
:103EC000DF5C0BE162EC23F0B0EC23F003E1130EB6
:103ED000EBEC23F066EC23F00BD0090EDB6A07EC69
:103EE00024F003E07BEC24F0FAD7090EEBEC23F08E
:103EF000680EDF5C07E166EC23F0680EDF5C1DE115
:103F0000030E18D0740EDF5C17E07A0EDF5C14E04D
:103F1000480EDF5C06E0540EDF5C03E05A0EDF5C07
:103F200002E1020E07D06C0EDF5C03E06A0EDF5C7C
:103F300004E1010E3EEC24F0C9DBDF506E0A01E122
:103F40007FD31E0A01E192D1200A01E18FD13F0AFD
:103F500001E149D11A0A01E146D10D0A01E143D13B
:103F6000200A01E140D13A0A01E13DD1200A01E1F4
:103F70003AD1260A01E135D10D0A01E132D11A0AFE
:103F800001E1D9D0200A4AE0300A1FE0460A0EE0DB
:103F9000250A01E083D3D950F90FE96EFF0EDA202C
:103FA000EA6E010EEE5E000EEE5AEE5A4CEC24F074
:103FB000250EE66E95DB03E1151C01E169D348ECA3
:103FC00024F001E26BD3DB2A69D3080EDB6A040E0E
:103FD000DB50010806E2040EDB0410EC24F0DB5099
:103FE0008BDB080EDB5009E0030EDB50010B05E113
:103FF00072DB01E04DD3080EDB6A64DBEFCFDFFF3D
:10400000C0EC24F003E1151C01E142D348EC24F09C
:1040100001E3DB2A60DB01E141D33AD3070EDB5039
:1040200002080FE18CEC24F0030E53EC24F00E0E8A
:10403000EECFDBFF0F0EEECFDBFF100EEECFDBFF80
:1040400020D0F70EDBCF17F0F80EDBCF18F0020E02
:10405000175E000E185AF70E17C0DBFFF80E18C0D7
:10406000DBFF17C0E9FF18C0EAFF43EC24F0166A33
:104070000E0E14C0DBFF0F0E15C0DBFF100E16C0B6
:10408000DBFF0E0EDBCFE6FF0F0EDBCFE6FF100EE1
:10409000DBCFE6FFC3EC26F0E552E552E552130E06
:1040A00007C0DBFF140E08C0DBFF060EDB5005E087
:1040B000130E87EC24F001E26ADBABEC24F002E2A1
:1040C000130E37DB6EEC24F006E0040E87EC24F0D0
:1040D00002E2050E2EDB030EDBB005D0FCDA01E0B8
:1040E000D7D2080EDB6A090EDB6A0E0EDBCFF6FFB5
:1040F0000F0EDBCFF7FF100EDBCFF8FF0800F550F7
:10410000DF6EDF5014E0B1EC24F011E2C0EC24F0DB
:1041100003E1151C01E1BCD2BBDB01E3DB2A090E84
:10412000DB2AD9500E0FE96E000ECBDBE7D7D3DACE
:1041300001E1B4D2ADD2C6DA110EEECFDBFF120E22
:10414000EDCFDBFF110EDBCFE6FF120EDBCFE6FF7C
:10415000B5EC26F0E552E552130EF3CFDBFF140E5B
:10416000F4CFDBFF060EDB5004E0130ED0DB01E2E0
:104170000EDBABEC24F002E2130EDBDAAFDB05E082
:10418000040EC5DB02E2050ED4DA030EDBB005D067
:10419000A2DA01E07DD2080EDB6A090EDB6A110E9D
:1041A000DBCFE9FF120EDBCFEAFFEFCFDFFFDF50FF
:1041B00014E0D7DB12E2E4DB03E1151C01E168D275
:1041C00067DB01E3DB2A090EDB2A110EDB2ADBCFDA
:1041D000E9FF120EE8E3DB2AE6D77DDA01E15ED2E1
:1041E00057D2030EDB8E070EDB0410E195DB040EC5
:1041F0005ADB0A0EEECFDBFF0B0EEECFDBFF0C0E11
:10420000EECFDBFF0D0EEECFDBFF6CD0070EDB50E9
:1042100003082CE1030EDBAE0DD0B2DA020E76DA23
:10422000EFCF14F0156A166A176A14AE39D0156804
:10423000166835D0F70EDBCF15F0F80EDBCF16F091
:10424000020E155E000E165AF70E15C0DBFFF80EB3
:1042500016C0DBFF15C0E9FF16C0EAFFEFCF14F070
:104260000A0E14C0DBFF0B0EDB6A38D0070EDB50E2
:10427000020809E1030EDBAE04D059DB16AE10D004
:104280000ED055DB0DD0030EDBAE12D079DA020E64
:104290003DDAF9DA166A176A15AE02D016681768A1
:1042A000E2DA0C0E16C0DBFF0D0E17C0DBFF1AD0D2
:1042B000F70EDBCF16F0F80EDBCF17F0020E165E0E
:1042C000000E175AF70E16C0DBFFF80E17C0DBFF03
:1042D00016C0E9FF17C0EAFFD6DAC5DA0C0EDB6AB2
:1042E0000D0EDB6A060EDB5005E1010EF36E050EC6
:1042F000F3CFDBFF150EDB6A160EDB6AD950370FE2
:10430000146E000EDA20156E390E14C0DBFF3A0E63
:1043100015C0DBFF380EDB6A080EDB6A0A0EAEDA68
:10432000DF50780A12E0200A10E0280A0CE0200A88
:104330000AE03F0A06E00D0A02E0200A08E1020E48
:1043400005D0080E03D0080EDF26100E97DA030EF4
:10435000DBBE02D0DB92DB94DB50800B24E08ADAF8
:10436000D890030EEB50000A08E6000EEE5C000E3B
:10437000EE58000EEE58000EEE5815E213DA0B68F8
:104380000C680D680E6847EC26F00A0E02C0DBFFD1
:104390000B0E03C0DBFF0C0E04C0DBFF0D0E05C0CF
:1043A000DBFF2D0E08D0030EDBA202D02B0E03D0B4
:1043B000DBA408D0200EF36E170EF3CFDBFF150E33
:1043C000DB2A02D0170EDB6A050EDB5003E1B7D9FA
:1043D00001E189D0A80E146E4F0E156E000E166EF8
:1043E000070EDBCF17F0186A196A1A6A17C00BF0AC
:1043F00018C00CF019C00DF01AC00EF0D3D93BEC68
:1044000027F014500224F36E15500320F46E16505A
:104410000420F86EF4CFF7FFF3CFF6FF0800090E83
:10442000F5CFDBFF580EDF5C0FE1610EF36E090E76
:104430007BD90AE3200E146E090EDBCFE7FF145080
:10444000E75E090EE7CFDBFF070EDBCF14F0156A3E
:10445000166A176A0FDA14C00BF015C00CF016C0FC
:104460000DF017C00EF0EECF06F0EECF07F0EECF56
:1044700008F0EFCF09F03BEC27F009C0EDFF08C0D2
:10448000EDFF07C0EDFF06C0EFFF390EDBCFE9FF00
:10449000DB063A0EDBCFEAFF01E2DB06090EDBCFDB
:1044A000EFFF150EDB2A4BD995E1030EDBA61DD0DD
:1044B0006F0EDF5C06E1C1D918E3150EDB285BDA6D
:1044C00014D0780EDF5C09E0580EDF5C06E0620E67
:1044D000DF5C03E0420EDF5C08E1020EF36E160EB5
:1044E000F3CFDBFF02D0150EDB6A030EDB50100B9F
:1044F0000EE0040EDBCF14F0050EDB50D880145410
:1045000006E2060EDB5003E1040EDB5034DA95D9E7
:104510000AE2050EDBCFE7FF150EDB50E75E050E66
:10452000E7CFDBFF02D0050EDB6A040EDBCF14F011
:10453000160E45D9D880145414E2160EDBCFE6FFD0
:10454000150EDBCFE6FF040EDBCFE6FF050EDB50DA
:10455000E552E75CE552D880E754E552D880E7544D
:104560005FD9030EDB50010B0BE1080EDB5008E0B6
:10457000B2D801E08DD0080EDB50BED8080EDB6A41
:10458000170EDB5007E088D9170EF1D903E1151C8F
:1045900001E17ED0160EDB5016E07ED9300EE66EBD
:1045A0009FD802E1151C74E077D9DFCFE6FF05EC58
:1045B00026F0E552E552E552F4CF15F00001F31C68
:1045C00002E1151C65E0050EDBCF14F0160EDB5082
:1045D000D880145409E2050EDBCFE7FF160EDB503E
:1045E000E75E050EE7CFDBFF300EE66E050ECBD99A
:1045F0004FE1390EDB2ADBCFE9FF3A0E01E3DB2A7C
:10460000DBCFEAFF090EEFCFDBFFDB500EE044D932
:10461000090EADD902E1151C3BE0390EDB2ADBCFD8
:10462000E9FF3A0EEDE3DB2AEBD755D831E1160E60
:10463000DBCFE6FF080EC3D8E552E7245DD82ED0C5
:10464000070EDB50030A1CE0010A14E0030A07E02E
:104650007BD9DBCFEEFF020EDBCFEDFF1FD0F5D80D
:10466000196A17AE02D0186819682CD8BCD819C0BE
:10467000EEFF14D0EAD817BE186824D8B4D80ED0EC
:1046800063D9DBCFEFFF0AD07BD905E1151C03E12D
:10469000F368F46810D0FCD801E3DB2A79D9EDEF98
:1046A0001EF0010EDBCF14F0020EDBCF15F014C0AC
:1046B000F3FF15C0F4FF3B0EE15C02E2E16AE55254
:1046C000E16ECBD029D9020E53EF24F061D9080056
:1046D000F550DF6E1200200EE66E080EC3EF24F0D8
:1046E00005EC26F0E552E552E552F3CF14F0F4CF95
:1046F00015F00001F31C1200146E156AD950010F59
:104700004DD91450EE261550ED221200185E000E01
:10471000195AF70E18C0DBFFF80E19C0DBFF18C0DE
:10472000E9FF19C0EAFF1200DBCFF4FFF350F45C9D
:104730001200DB50E76E040EE7CFDBFF12000A0E1B
:10474000DBCF14F00B0EDBCF15F00C0EDBCF16F029
:104750000D0EDBCF17F014501510161017101200A5
:10476000130EEECFDBFF140EEDCFDBFF130EDBCF0E
:1047700014F0140EDBCF15F00001800E151412009A
:10478000F70EDBCF18F0F80EDBCF19F01200050E94
:10479000DB50E66ED950130F01D9E552E750EE6EAB
:1047A000ED6A12000A0EDBCF06F00B0EDBCF07F02E
:1047B0000C0EDBCF08F00D0EDBCF09F01200DBCFC3
:1047C000E6FF150EDBCFE6FF050EDB50E552E724D2
:1047D000E552E7241200DB50CED8010EF36E060E30
:1047E000F3CFDBFF1200EE50EFCFEAFFE96E16C009
:1047F000EEFF17C0EEFF18C0EEFF1200D9CFE6FFA4
:10480000DACFE6FFE1CFD9FFE2CFDAFF1200DFCF48
:10481000E6FFE66A8DEC27F0E552E552F350120010
:10482000E76E080EE7CFDBFF1200EECF14F0EECFFD
:1048300015F0EFCF16F0176A1200050EDBCF14F05B
:10484000150EDB50D88014541200010EDBCF16F089
:10485000020EDBCF17F0186A1200E552E5CFDAFF3F
:10486000E7CFD9FF12000A0E14C0DBFF0B0E15C0F4
:10487000DBFF1200D9500A0FCEEF24F0F36E070EC3
:10488000F3CFDBFF1200EECF14F0EFCF15F01200E4
:10489000010EDB2A020E1200FC0EDBCFE6FFFD0E3E
:1048A000DBCFE6FF1200145E000E155AF70E14C09F
:1048B000DBFFF80E15C0DBFF14C0E9FF15C0EAFFEF
:1048C0001200DA20EA6EEF2AEECFF6FF000EEF229A
:1048D000EECFF7FFEF22EECFF8FF1200040EDBCF92
:1048E000E6FF130EDB50E552E75C9ADFDB5004DF96
:1048F000060EDB501200090EDB500A0DF350DF24C8
:10490000D00FE76E090EE7CFDBFF66EF23F0DB5039
:10491000F36E050E94EF23F0F70EDBCF14F0F80ED4
:10492000DBCF15F01200DFCFE6FF70EF23F028DFBA
:10493000030EECDE15EF24F0C2EC1EF0E552E5525A
:10494000E552E55200091200BDDEEE50EFCFEAFF5E
:10495000E96E010E1200130EDB50F36E040E94EF9D
:1049600023F0040EDB50F36E090E94EF23F0DBCF3F
:10497000E6FF70EF23F0E76E050EE7CFDBFF1200D6
:104980008BDF93EF24F0DBCFE6FF86DF9CEF24F094
:10499000D950F90FE96EFF0E61EF24F0E96E000EB9
:0649A000DA20EA6E1200AD
:0A49A600D9CFE6FFDACFE6FFE1CF3C
:1049B000D9FFE2CFDAFFE652E652E652E652D9508C
:1049C000F90F146EFF0EDA20156E020E14C0DBFF15
:1049D000030E15C0DBFF020EDBCFE6FF030EDBCFBD
:1049E000E6FFF90EDBCFE6FFFA0EDBCFE6FFFB0EAC
:1049F000DBCFE6FFD950FC0FE66EFF0EDA20E66E45
:104A0000D8EC1EF0146E070EE15C02E2E16AE5529A
:104A1000E16E1450F3CFDEFFF4CFDDFFFC0EDBCFF1
:104A2000E9FFFD0EDBCFEAFFEF6ADECF14F0DDCF4A
:104A300015F014C0F3FF15C0F4FF040EE15C02E2B0
:104A4000E16AE552E16EE552E5CFDAFFE7CFD9FF43
:024A5000120052
:0E4A52004A0EF66E080EF76E000EF86E0201A8
:104A60000900F550056F0900F550066F03E1056771
:104A700001D03DD00900F550006F0900F550016FDD
:104A80000900F550026F09000900F550E96E0900B0
:104A9000F550EA6E090009000900F550036F09009E
:104AA000F550046F09000900F6CF07F2F7CF08F2BE
:104AB000F8CF09F200C2F6FF01C2F7FF02C2F8FF09
:104AC0000201035302E1045307E00900F550EE6EC2
:104AD0000307F8E20407F9D707C2F6FF08C2F7FF99
:104AE00009C2F8FF02010507000E065BBFD71200DE
:104AF000253278202532782025327820253278001A
:104B000025327820253278202532782025327820E9
:104B100025327820253278202532782025327820D9
:104B200025327820253278202532782025327820C9
:104B300025327820253278202532782025327800D9
:104B40002532643A2000536563746F722025326405
:104B50002C20626C6F636B202532643A2000536511
:104B600063746F72202530326420737563636573DC
:0F4B70007366756C6C79207772697474656E006A
:104B8000D9CFE6FFDACFE6FFE1CFD9FFE2CFDAFFF8
:104B9000AC6AAB6AFD0EDBB0AC88DBA202D0AC8C99
:104BA000AB8CDBB4AC8EDBA602D0AB8801D0AB8A79
:104BB000DBB8AC849E98DBBAAB86DBAC02D09D8AB6
:104BC00001D09D9A9E9ADBAE02D09D8801D09D981F
:104BD000FB0EDB50AF6EFB0EFC0EDBCF15F015C0ED
:104BE00014F0156A1450B06EAC8AAB8E949C948EFF
:104BF000AC50100B04E0AC50800B01E1948CE552FA
:0A4C0000E5CFDAFFE7CFD9FF12007D
:064C0A00D9CFE6FFDACF6E
:104C1000E6FFE1CFD9FFE2CFDAFFFB0EDBCF14F0E6
:104C2000FC0EDBCF15F00001800E15141AE1FB0E0F
:104C3000DBCFE9FFFC0EDBCFEAFFEECFF3FFEDCFDA
:104C4000F4FFEE2A000EEF22F3CFE9FFF4CFEAFFE4
:104C5000FD0EDBCFEFFFEF50156AF36E15C0F4FFCA
:104C600010D0FB0EDB50FE0806E1FD0EDBCFE6FFA9
:104C7000BDEC27F005D0FD0EDBCFE6FFE1EC27F021
:0E4C8000E552E552E5CFDAFFE7CFD9FF12008B
:024C8E000650CE
:104C90000B02F3CF02F0F4CF03F00C02F350032623
:104CA000000EF420046E06500D02F3500426000E90
:104CB000F420056E06500E02F350052607500B0235
:104CC000F3500326F4500422000E052207500C0274
:104CD000F3500426F450052207500D02F350052628
:104CE00008500B02F3500426F450052208500C0221
:0E4CF000F350052609500B02F3500526120062
:024CFE00D9CF0C
:104D0000E6FFDACFE6FFE1CFD9FFE2CFDAFFE652E6
:104D1000080EDF6EFD0EDBCF0AF2819E02010ABF94
:104D2000818E00000000D89081B6D880818C0A372F
:104D30000000000000000000000000000000000073
:104D4000000000000000819C819E02010ABF818E4C
:104D5000DF06DF50E8E102010A5100D0E552E552DA
:0A4D6000E5CFDAFFE7CFD9FF12001C
:064D6A00FE0EE3CFE9FF9D
:104D7000FF0EE3CFEAFFF36AF46AEE5203E0F34A70
:104D8000F42AFBD71200FF0EE3CFF8FFE552FF0E27
:104D9000E3CFF7FFE552FF0EE3CFF6FFE552E66AF9
:104DA000E66AE66A0900F55209E0FD0EE32A05E12C
:104DB000FE0EE32A02E1FF0EE32AF4D7FD0EE3CF55
:104DC00007F0FE0EE3CF08F0FF0EE3CF09F012006C
:104DD00009C013F008C012F008500D02F4CF07F01C
:104DE000F3CF06F009500E02F4CF09F0F3CF08F02C
:104DF0000D02F3500726F4500822E86A09221250E7
:104E00000E02F3500726F4500822E86A09220EAE7B
:104E10000EEF27F01250085E1350095A13AE000C23
:0A4E20000D50085E0E50095A000CF8
:064E2A00D9CFE6FFDACF4C
:104E3000E6FFE1CFD9FFE2CFDAFFACA2FED7FC0E4E
:104E4000DBCFE9FFFD0EDBCFEAFFEF50E66E76EC3D
:104E500027F0E552FC0EDBCFE9FFDB2AFD0EDBCFAE
:104E6000EAFF01E3DB2AEF50E8E1E552E5CFDAFFA4
:064E7000E7CFD9FF12009C
:0A4E7600056A046A036A026A200E4E
:104E8000E76ED890063607360836093602360336FE
:104E9000043605360B50025C0C5003580D50045874
:104EA0000E50055809E30B50025E0C50035A0D508A
:0E4EB000045A0E50055A062AE72EE4D71200C7
:024EBE00FF0EE5
:104EC000E3501C6EEF0E01D0F30EE76EE72E66EF97
:104ED00027F00C0E1B6EE76AE72E6CEF27F01B2EF7
:0C4EE0006BEF27F01C2E64EF27F012008F
:044EEC00D9CFE6FF35
:104EF000DACFE6FFE1CFD9FFE2CFDAFFACAC04D0E6
:104F0000AC9002010BB3AC80FD0EDB50AD6EE552F0
:0A4F1000E5CFDAFFE7CFD9FF12006A
:064F1A00F36AF46AFF0EC9
:104F2000E124E96EFF0EE220EA6EED6607D02F0E57
:0E4F3000EF6404D03A0EEF6001D0F32A1200B5
:024F3E00000E63
:104F4000F36E00EE00F0080E01D81200EA6002D005
:0E4F5000EE6AFCD7F350E9601200EE6AFCD75F
:024F5E0012EE51
:104F600040F022EE40F0F86A019C29EC25F0E2ECDA
:0A4F700027F003EC04F0FBD7120059
:064F7A00FF0EE350ACBA8B
:104F800004D0AF6AAB8EAC8A949CACA2FED7AD6E57
:064F9000F36EF46A12004A
:0A4F960081848186819E819C9394A2
:084FA0009386939E939C12007E
:084FA800303132333435363765
:094FB00038396162636465660032
:044FBA0081841200DC
:024FBE008194DC
:024FC0001200DD
:024FC2001200DB
:024FC4001200D9
:00000001FF
